{
  "contractName": "CrowdFund",
  "abi": [
    {
      "inputs": [],
      "stateMutability": "nonpayable",
      "type": "constructor"
    },
    {
      "inputs": [],
      "name": "ReentrancyGuardReentrantCall",
      "type": "error"
    },
    {
      "anonymous": false,
      "inputs": [
        {
          "indexed": true,
          "internalType": "uint256",
          "name": "_id",
          "type": "uint256"
        },
        {
          "indexed": false,
          "internalType": "uint32",
          "name": "_withdrawalRequestIndex",
          "type": "uint32"
        }
      ],
      "name": "ApproveRequest",
      "type": "event"
    },
    {
      "anonymous": false,
      "inputs": [
        {
          "indexed": true,
          "internalType": "uint256",
          "name": "id",
          "type": "uint256"
        },
        {
          "indexed": false,
          "internalType": "string",
          "name": "name",
          "type": "string"
        },
        {
          "indexed": false,
          "internalType": "uint256",
          "name": "projectDeadline",
          "type": "uint256"
        },
        {
          "indexed": false,
          "internalType": "uint256",
          "name": "goal",
          "type": "uint256"
        }
      ],
      "name": "ExpireFundraise",
      "type": "event"
    },
    {
      "anonymous": false,
      "inputs": [
        {
          "indexed": true,
          "internalType": "uint256",
          "name": "id",
          "type": "uint256"
        },
        {
          "indexed": false,
          "internalType": "address",
          "name": "contributor",
          "type": "address"
        },
        {
          "indexed": false,
          "internalType": "uint256",
          "name": "amount",
          "type": "uint256"
        },
        {
          "indexed": false,
          "internalType": "uint256",
          "name": "totalPledged",
          "type": "uint256"
        }
      ],
      "name": "FundsReceive",
      "type": "event"
    },
    {
      "anonymous": false,
      "inputs": [
        {
          "indexed": true,
          "internalType": "uint256",
          "name": "id",
          "type": "uint256"
        },
        {
          "indexed": false,
          "internalType": "address",
          "name": "refundRequestUser",
          "type": "address"
        },
        {
          "indexed": false,
          "internalType": "uint256",
          "name": "refundAmt",
          "type": "uint256"
        }
      ],
      "name": "GenerateRefund",
      "type": "event"
    },
    {
      "anonymous": false,
      "inputs": [
        {
          "indexed": true,
          "internalType": "uint256",
          "name": "id",
          "type": "uint256"
        },
        {
          "indexed": false,
          "internalType": "address",
          "name": "projectCreator",
          "type": "address"
        },
        {
          "indexed": false,
          "internalType": "string",
          "name": "projectTitle",
          "type": "string"
        },
        {
          "indexed": false,
          "internalType": "string",
          "name": "projectDesc",
          "type": "string"
        },
        {
          "indexed": false,
          "internalType": "uint256",
          "name": "projectDeadline",
          "type": "uint256"
        },
        {
          "indexed": false,
          "internalType": "uint256",
          "name": "goalAmount",
          "type": "uint256"
        }
      ],
      "name": "NewProjectCreated",
      "type": "event"
    },
    {
      "anonymous": false,
      "inputs": [
        {
          "indexed": true,
          "internalType": "uint256",
          "name": "id",
          "type": "uint256"
        },
        {
          "indexed": false,
          "internalType": "string",
          "name": "description",
          "type": "string"
        },
        {
          "indexed": false,
          "internalType": "uint256",
          "name": "amount",
          "type": "uint256"
        }
      ],
      "name": "NewWithdrawalRequest",
      "type": "event"
    },
    {
      "anonymous": false,
      "inputs": [
        {
          "indexed": true,
          "internalType": "uint256",
          "name": "_id",
          "type": "uint256"
        },
        {
          "indexed": false,
          "internalType": "uint32",
          "name": "_withdrawalRequestIndex",
          "type": "uint32"
        },
        {
          "indexed": false,
          "internalType": "uint256",
          "name": "_amountTransfered",
          "type": "uint256"
        }
      ],
      "name": "PayCreator",
      "type": "event"
    },
    {
      "anonymous": false,
      "inputs": [
        {
          "indexed": true,
          "internalType": "uint256",
          "name": "_id",
          "type": "uint256"
        },
        {
          "indexed": false,
          "internalType": "uint32",
          "name": "_withdrawalRequestIndex",
          "type": "uint32"
        },
        {
          "indexed": false,
          "internalType": "uint256",
          "name": "_amountTransfered",
          "type": "uint256"
        }
      ],
      "name": "PayPlatform",
      "type": "event"
    },
    {
      "anonymous": false,
      "inputs": [
        {
          "indexed": true,
          "internalType": "uint256",
          "name": "_id",
          "type": "uint256"
        },
        {
          "indexed": false,
          "internalType": "uint32",
          "name": "_withdrawalRequestIndex",
          "type": "uint32"
        }
      ],
      "name": "RejectRequest",
      "type": "event"
    },
    {
      "anonymous": false,
      "inputs": [
        {
          "indexed": true,
          "internalType": "uint256",
          "name": "id",
          "type": "uint256"
        },
        {
          "indexed": false,
          "internalType": "string",
          "name": "name",
          "type": "string"
        },
        {
          "indexed": false,
          "internalType": "uint256",
          "name": "projectDeadline",
          "type": "uint256"
        },
        {
          "indexed": false,
          "internalType": "uint256",
          "name": "goal",
          "type": "uint256"
        }
      ],
      "name": "SuccessButContinueFundRaise",
      "type": "event"
    },
    {
      "anonymous": false,
      "inputs": [
        {
          "indexed": true,
          "internalType": "uint256",
          "name": "id",
          "type": "uint256"
        },
        {
          "indexed": false,
          "internalType": "string",
          "name": "name",
          "type": "string"
        },
        {
          "indexed": false,
          "internalType": "uint256",
          "name": "projectDeadline",
          "type": "uint256"
        },
        {
          "indexed": false,
          "internalType": "uint256",
          "name": "goal",
          "type": "uint256"
        }
      ],
      "name": "SuccessFundRaise",
      "type": "event"
    },
    {
      "anonymous": false,
      "inputs": [
        {
          "indexed": true,
          "internalType": "uint256",
          "name": "_id",
          "type": "uint256"
        },
        {
          "indexed": false,
          "internalType": "uint32",
          "name": "_withdrawalRequestIndex",
          "type": "uint32"
        }
      ],
      "name": "TransferRequestFunds",
      "type": "event"
    },
    {
      "stateMutability": "payable",
      "type": "fallback"
    },
    {
      "inputs": [
        {
          "internalType": "uint256",
          "name": "",
          "type": "uint256"
        },
        {
          "internalType": "address",
          "name": "",
          "type": "address"
        }
      ],
      "name": "contributions",
      "outputs": [
        {
          "internalType": "uint256",
          "name": "",
          "type": "uint256"
        }
      ],
      "stateMutability": "view",
      "type": "function"
    },
    {
      "inputs": [
        {
          "internalType": "uint256",
          "name": "",
          "type": "uint256"
        }
      ],
      "name": "idToProject",
      "outputs": [
        {
          "internalType": "uint256",
          "name": "id",
          "type": "uint256"
        },
        {
          "internalType": "address payable",
          "name": "creator",
          "type": "address"
        },
        {
          "internalType": "string",
          "name": "name",
          "type": "string"
        },
        {
          "internalType": "string",
          "name": "description",
          "type": "string"
        },
        {
          "internalType": "uint256",
          "name": "projectDeadline",
          "type": "uint256"
        },
        {
          "internalType": "uint256",
          "name": "totalPledged",
          "type": "uint256"
        },
        {
          "internalType": "uint256",
          "name": "goal",
          "type": "uint256"
        },
        {
          "internalType": "uint256",
          "name": "totalDepositors",
          "type": "uint256"
        },
        {
          "internalType": "uint256",
          "name": "totalWithdrawn",
          "type": "uint256"
        },
        {
          "internalType": "enum CrowdFund.State",
          "name": "currentState",
          "type": "uint8"
        }
      ],
      "stateMutability": "view",
      "type": "function"
    },
    {
      "inputs": [
        {
          "internalType": "uint256",
          "name": "",
          "type": "uint256"
        },
        {
          "internalType": "uint256",
          "name": "",
          "type": "uint256"
        }
      ],
      "name": "idToWithdrawalRequests",
      "outputs": [
        {
          "internalType": "uint32",
          "name": "index",
          "type": "uint32"
        },
        {
          "internalType": "string",
          "name": "description",
          "type": "string"
        },
        {
          "internalType": "uint256",
          "name": "withdrawalAmount",
          "type": "uint256"
        },
        {
          "internalType": "address payable",
          "name": "recipient",
          "type": "address"
        },
        {
          "internalType": "uint256",
          "name": "approvedVotes",
          "type": "uint256"
        },
        {
          "internalType": "enum CrowdFund.Withdrawal",
          "name": "currentWithdrawalState",
          "type": "uint8"
        },
        {
          "internalType": "bool",
          "name": "withdrawn",
          "type": "bool"
        }
      ],
      "stateMutability": "view",
      "type": "function"
    },
    {
      "inputs": [],
      "name": "projectCount",
      "outputs": [
        {
          "internalType": "uint256",
          "name": "",
          "type": "uint256"
        }
      ],
      "stateMutability": "view",
      "type": "function"
    },
    {
      "stateMutability": "payable",
      "type": "receive"
    },
    {
      "inputs": [
        {
          "internalType": "string",
          "name": "_name",
          "type": "string"
        },
        {
          "internalType": "string",
          "name": "_description",
          "type": "string"
        },
        {
          "internalType": "uint256",
          "name": "_projectDeadline",
          "type": "uint256"
        },
        {
          "internalType": "uint256",
          "name": "_goalEth",
          "type": "uint256"
        }
      ],
      "name": "createNewProject",
      "outputs": [],
      "stateMutability": "nonpayable",
      "type": "function"
    },
    {
      "inputs": [
        {
          "internalType": "uint256",
          "name": "_id",
          "type": "uint256"
        }
      ],
      "name": "contributeFunds",
      "outputs": [],
      "stateMutability": "payable",
      "type": "function"
    },
    {
      "inputs": [
        {
          "internalType": "uint256",
          "name": "_id",
          "type": "uint256"
        }
      ],
      "name": "endContributionsExpire",
      "outputs": [],
      "stateMutability": "nonpayable",
      "type": "function"
    },
    {
      "inputs": [
        {
          "internalType": "uint256",
          "name": "_id",
          "type": "uint256"
        }
      ],
      "name": "endContributionsSuccess",
      "outputs": [],
      "stateMutability": "nonpayable",
      "type": "function"
    },
    {
      "inputs": [
        {
          "internalType": "uint256",
          "name": "_id",
          "type": "uint256"
        }
      ],
      "name": "getRefund",
      "outputs": [],
      "stateMutability": "payable",
      "type": "function"
    },
    {
      "inputs": [
        {
          "internalType": "uint256",
          "name": "_id",
          "type": "uint256"
        },
        {
          "internalType": "uint32",
          "name": "_requestNumber",
          "type": "uint32"
        },
        {
          "internalType": "string",
          "name": "_description",
          "type": "string"
        },
        {
          "internalType": "uint256",
          "name": "_amount",
          "type": "uint256"
        }
      ],
      "name": "createWithdrawalRequest",
      "outputs": [],
      "stateMutability": "nonpayable",
      "type": "function"
    },
    {
      "inputs": [
        {
          "internalType": "uint256",
          "name": "_id",
          "type": "uint256"
        },
        {
          "internalType": "uint32",
          "name": "_withdrawalRequestIndex",
          "type": "uint32"
        }
      ],
      "name": "approveWithdrawalRequest",
      "outputs": [],
      "stateMutability": "nonpayable",
      "type": "function"
    },
    {
      "inputs": [
        {
          "internalType": "uint256",
          "name": "_id",
          "type": "uint256"
        },
        {
          "internalType": "uint32",
          "name": "_withdrawalRequestIndex",
          "type": "uint32"
        }
      ],
      "name": "rejectWithdrawalRequest",
      "outputs": [],
      "stateMutability": "nonpayable",
      "type": "function"
    },
    {
      "inputs": [
        {
          "internalType": "uint256",
          "name": "_id",
          "type": "uint256"
        },
        {
          "internalType": "uint32",
          "name": "_withdrawalRequestIndex",
          "type": "uint32"
        }
      ],
      "name": "transferWithdrawalRequestFunds",
      "outputs": [],
      "stateMutability": "payable",
      "type": "function"
    },
    {
      "inputs": [
        {
          "internalType": "uint256",
          "name": "_id",
          "type": "uint256"
        }
      ],
      "name": "getProjectDetails",
      "outputs": [
        {
          "internalType": "address",
          "name": "creator",
          "type": "address"
        },
        {
          "internalType": "string",
          "name": "name",
          "type": "string"
        },
        {
          "internalType": "string",
          "name": "description",
          "type": "string"
        },
        {
          "internalType": "uint256",
          "name": "projectDeadline",
          "type": "uint256"
        },
        {
          "internalType": "uint256",
          "name": "totalPledged",
          "type": "uint256"
        },
        {
          "internalType": "uint256",
          "name": "goal",
          "type": "uint256"
        },
        {
          "internalType": "uint256",
          "name": "totalDepositors",
          "type": "uint256"
        },
        {
          "internalType": "uint256",
          "name": "totalWithdrawn",
          "type": "uint256"
        },
        {
          "internalType": "enum CrowdFund.State",
          "name": "currentState",
          "type": "uint8"
        }
      ],
      "stateMutability": "view",
      "type": "function"
    },
    {
      "inputs": [],
      "name": "getAllProjects",
      "outputs": [
        {
          "components": [
            {
              "internalType": "uint256",
              "name": "id",
              "type": "uint256"
            },
            {
              "internalType": "address payable",
              "name": "creator",
              "type": "address"
            },
            {
              "internalType": "string",
              "name": "name",
              "type": "string"
            },
            {
              "internalType": "string",
              "name": "description",
              "type": "string"
            },
            {
              "internalType": "uint256",
              "name": "projectDeadline",
              "type": "uint256"
            },
            {
              "internalType": "uint256",
              "name": "totalPledged",
              "type": "uint256"
            },
            {
              "internalType": "uint256",
              "name": "goal",
              "type": "uint256"
            },
            {
              "internalType": "uint256",
              "name": "totalDepositors",
              "type": "uint256"
            },
            {
              "internalType": "uint256",
              "name": "totalWithdrawn",
              "type": "uint256"
            },
            {
              "internalType": "enum CrowdFund.State",
              "name": "currentState",
              "type": "uint8"
            }
          ],
          "internalType": "struct CrowdFund.Project[]",
          "name": "",
          "type": "tuple[]"
        }
      ],
      "stateMutability": "view",
      "type": "function"
    },
    {
      "inputs": [],
      "name": "getProjectCount",
      "outputs": [
        {
          "internalType": "uint256",
          "name": "count",
          "type": "uint256"
        }
      ],
      "stateMutability": "view",
      "type": "function"
    },
    {
      "inputs": [
        {
          "internalType": "uint256",
          "name": "_id",
          "type": "uint256"
        }
      ],
      "name": "getAllWithdrawalRequests",
      "outputs": [
        {
          "components": [
            {
              "internalType": "uint32",
              "name": "index",
              "type": "uint32"
            },
            {
              "internalType": "string",
              "name": "description",
              "type": "string"
            },
            {
              "internalType": "uint256",
              "name": "withdrawalAmount",
              "type": "uint256"
            },
            {
              "internalType": "address payable",
              "name": "recipient",
              "type": "address"
            },
            {
              "internalType": "uint256",
              "name": "approvedVotes",
              "type": "uint256"
            },
            {
              "internalType": "enum CrowdFund.Withdrawal",
              "name": "currentWithdrawalState",
              "type": "uint8"
            },
            {
              "internalType": "bool",
              "name": "withdrawn",
              "type": "bool"
            }
          ],
          "internalType": "struct CrowdFund.WithdrawalRequest[]",
          "name": "",
          "type": "tuple[]"
        }
      ],
      "stateMutability": "view",
      "type": "function"
    },
    {
      "inputs": [
        {
          "internalType": "uint256",
          "name": "_id",
          "type": "uint256"
        },
        {
          "internalType": "address",
          "name": "_contributor",
          "type": "address"
        }
      ],
      "name": "getContributions",
      "outputs": [
        {
          "internalType": "uint256",
          "name": "",
          "type": "uint256"
        }
      ],
      "stateMutability": "view",
      "type": "function"
    }
  ],
  "bytecode": "0x608060405234801561000f575f80fd5b5060015f819055503360015f6101000a81548173ffffffffffffffffffffffffffffffffffffffff021916908373ffffffffffffffffffffffffffffffffffffffff1602179055505f600381905550614e668061006b5f395ff3fe60806040526004361061010c575f3560e01c80636bb05fd81161009457806394e113091161006357806394e11309146103d0578063aafc92d6146103f8578063c1d445ba14610434578063d2f0be991461045c578063ec45db6b1461047857610177565b80636bb05fd8146102fd57806376b8395e1461032557806380d0382914610361578063931c1d891461038b57610177565b806345120f86116100db57806345120f861461023157806348a051321461024d5780634d0f9c68146102695780635f8439e314610291578063609a7dbe146102d557610177565b806301c2c9ba1461017957806336fbad26146101a15780633bcff3b0146101cb5780633d891f59146101f557610177565b366101775760015f9054906101000a900473ffffffffffffffffffffffffffffffffffffffff1673ffffffffffffffffffffffffffffffffffffffff166108fc3490811502906040515f60405180830381858888f19350505050158015610175573d5f803e3d5ffd5b005b005b348015610184575f80fd5b5061019f600480360381019061019a91906132e5565b6104ba565b005b3480156101ac575f80fd5b506101b5610929565b6040516101c29190613374565b60405180910390f35b3480156101d6575f80fd5b506101df61092f565b6040516101ec9190613374565b60405180910390f35b348015610200575f80fd5b5061021b600480360381019061021691906133e7565b610938565b6040516102289190613374565b60405180910390f35b61024b60048036038101906102469190613425565b610958565b005b61026760048036038101906102629190613463565b610f75565b005b348015610274575f80fd5b5061028f600480360381019061028a9190613463565b61124a565b005b34801561029c575f80fd5b506102b760048036038101906102b29190613463565b611470565b6040516102cc9998979695949392919061358a565b60405180910390f35b3480156102e0575f80fd5b506102fb60048036038101906102f69190613425565b61168d565b005b348015610308575f80fd5b50610323600480360381019061031e9190613463565b611a2e565b005b348015610330575f80fd5b5061034b60048036038101906103469190613463565b611c7c565b604051610358919061385d565b60405180910390f35b34801561036c575f80fd5b50610375611ef6565b6040516103829190613a25565b60405180910390f35b348015610396575f80fd5b506103b160048036038101906103ac9190613463565b6121b6565b6040516103c79a99989796959493929190613a54565b60405180910390f35b3480156103db575f80fd5b506103f660048036038101906103f19190613afc565b61233d565b005b348015610403575f80fd5b5061041e600480360381019061041991906133e7565b61254f565b60405161042b9190613374565b60405180910390f35b34801561043f575f80fd5b5061045a60048036038101906104559190613425565b6125a5565b005b61047660048036038101906104719190613463565b6129b4565b005b348015610483575f80fd5b5061049e60048036038101906104999190613b98565b612cc6565b6040516104b19796959493929190613c03565b60405180910390f35b8360045f8281526020019081526020015f206001015f9054906101000a900473ffffffffffffffffffffffffffffffffffffffff1673ffffffffffffffffffffffffffffffffffffffff163373ffffffffffffffffffffffffffffffffffffffff161461055c576040517f08c379a000000000000000000000000000000000000000000000000000000000815260040161055390613ce7565b60405180910390fd5b84600280600281111561057257610571613517565b5b60045f8481526020019081526020015f206009015f9054906101000a900460ff1660028111156105a5576105a4613517565b5b146105e5576040517f08c379a00000000000000000000000000000000000000000000000000000000081526004016105dc90613d75565b60405180910390fd5b60045f8881526020019081526020015f206005015460045f8981526020019081526020015f20600801541061064f576040517f08c379a000000000000000000000000000000000000000000000000000000000815260040161064690613ddd565b60405180910390fd5b600160075f8981526020019081526020015f205f9054906101000a900463ffffffff1661067c9190613e28565b63ffffffff168663ffffffff16146106c9576040517f08c379a00000000000000000000000000000000000000000000000000000000081526004016106c090613ea9565b60405180910390fd5b5f670de0b6b3a7640000856106de9190613ec7565b90505f6040518060e001604052808963ffffffff16815260200188815260200183815260200160045f8c81526020019081526020015f206001015f9054906101000a900473ffffffffffffffffffffffffffffffffffffffff1673ffffffffffffffffffffffffffffffffffffffff1681526020015f815260200160018081111561076c5761076b613517565b5b81526020015f1515815250905060065f8a81526020019081526020015f2081908060018154018082558091505060019003905f5260205f2090600602015f909190919091505f820151815f015f6101000a81548163ffffffff021916908363ffffffff16021790555060208201518160010190816107ea9190614102565b50604082015181600201556060820151816003015f6101000a81548173ffffffffffffffffffffffffffffffffffffffff021916908373ffffffffffffffffffffffffffffffffffffffff1602179055506080820151816004015560a0820151816005015f6101000a81548160ff0219169083600181111561086f5761086e613517565b5b021790555060c08201518160050160016101000a81548160ff0219169083151502179055505050600160075f8b81526020019081526020015f205f8282829054906101000a900463ffffffff166108c69190613e28565b92506101000a81548163ffffffff021916908363ffffffff160217905550887fa37d57837469eb033a5f2b4e3333c3523977fcc88d9ff414952850be9cfa64b488886040516109169291906141d1565b60405180910390a2505050505050505050565b60035481565b5f600354905090565b6005602052815f5260405f20602052805f5260405f205f91509150505481565b8160045f8281526020019081526020015f206001015f9054906101000a900473ffffffffffffffffffffffffffffffffffffffff1673ffffffffffffffffffffffffffffffffffffffff163373ffffffffffffffffffffffffffffffffffffffff16146109fa576040517f08c379a00000000000000000000000000000000000000000000000000000000081526004016109f190613ce7565b60405180910390fd5b82828063ffffffff1660075f8481526020019081526020015f205f9054906101000a900463ffffffff1663ffffffff1614610a6a576040517f08c379a0000000000000000000000000000000000000000000000000000000008152600401610a6190614295565b60405180910390fd5b610a72612deb565b600260045f8781526020019081526020015f2060070154610a9391906142e0565b60065f8781526020019081526020015f20600186610ab19190614310565b63ffffffff1681548110610ac857610ac7614347565b5b905f5260205f2090600602016004015411610b18576040517f08c379a0000000000000000000000000000000000000000000000000000000008152600401610b0f9061440a565b60405180910390fd5b5f151560065f8781526020019081526020015f20600186610b399190614310565b63ffffffff1681548110610b5057610b4f614347565b5b905f5260205f20906006020160050160019054906101000a900460ff16151514610baf576040517f08c379a0000000000000000000000000000000000000000000000000000000008152600401610ba690614498565b60405180910390fd5b60045f8681526020019081526020015f206005015460065f8781526020019081526020015f20600186610be29190614310565b63ffffffff1681548110610bf957610bf8614347565b5b905f5260205f2090600602016002015410610c49576040517f08c379a0000000000000000000000000000000000000000000000000000000008152600401610c4090613ddd565b60405180910390fd5b5f60065f8781526020019081526020015f20600186610c689190614310565b63ffffffff1681548110610c7f57610c7e614347565b5b905f5260205f20906006020190505f6103e860038360020154610ca29190613ec7565b610cac91906142e0565b90505f60015f9054906101000a900473ffffffffffffffffffffffffffffffffffffffff1673ffffffffffffffffffffffffffffffffffffffff1682604051610cf4906144e3565b5f6040518083038185875af1925050503d805f8114610d2e576040519150601f19603f3d011682016040523d82523d5f602084013e610d33565b606091505b5050905080610d77576040517f08c379a0000000000000000000000000000000000000000000000000000000008152600401610d6e90614567565b60405180910390fd5b877f7afc4bae9e6d0e661f2ce0c1dce50a3343eb3d1ade8d52b9be5aa4d58a9598588884604051610da9929190614585565b60405180910390a25f60045f8a81526020019081526020015f206001015f9054906101000a900473ffffffffffffffffffffffffffffffffffffffff1690505f838560020154610df991906145ac565b90505f8273ffffffffffffffffffffffffffffffffffffffff1682604051610e20906144e3565b5f6040518083038185875af1925050503d805f8114610e5a576040519150601f19603f3d011682016040523d82523d5f602084013e610e5f565b606091505b5050905080610ea3576040517f08c379a0000000000000000000000000000000000000000000000000000000008152600401610e9a90614567565b60405180910390fd5b8a7f27ae59d111e674b3cbf2ac19158097c97ed2f28fc764b66f9fa7e82b775def3d8b84604051610ed5929190614585565b60405180910390a260018660050160016101000a81548160ff021916908315150217905550856002015460045f8d81526020019081526020015f206008015f828254610f2191906145df565b925050819055508a7f7504b85ae1674ef95f5e2fa834bb48de5507b38a5e144bc39623c2904c77a77d8b604051610f589190614612565b60405180910390a2505050505050610f6e612e2f565b5050505050565b805f806002811115610f8a57610f89613517565b5b60045f8481526020019081526020015f206009015f9054906101000a900460ff166002811115610fbd57610fbc613517565b5b14610ffd576040517f08c379a0000000000000000000000000000000000000000000000000000000008152600401610ff490613d75565b60405180910390fd5b611005612deb565b60035483111561104a576040517f08c379a000000000000000000000000000000000000000000000000000000000815260040161104190614675565b60405180910390fd5b5f341161108c576040517f08c379a000000000000000000000000000000000000000000000000000000000815260040161108390614703565b60405180910390fd5b60045f8481526020019081526020015f20600401544211156110e3576040517f08c379a00000000000000000000000000000000000000000000000000000000081526004016110da90614791565b60405180910390fd5b3460025f3073ffffffffffffffffffffffffffffffffffffffff1673ffffffffffffffffffffffffffffffffffffffff1681526020019081526020015f205f82825461112f91906145df565b925050819055503460055f8581526020019081526020015f205f3373ffffffffffffffffffffffffffffffffffffffff1673ffffffffffffffffffffffffffffffffffffffff1681526020019081526020015f205f82825461119191906145df565b925050819055503460045f8581526020019081526020015f206005015f8282546111bb91906145df565b92505081905550600160045f8581526020019081526020015f206007015f8282546111e691906145df565b92505081905550827f96d677f95277e6d3f1e654cf54d6351531e1d08e3bafd5465d62827c1ad19990333460045f8881526020019081526020015f2060050154604051611235939291906147af565b60405180910390a2611245612e2f565b505050565b805f60055f8381526020019081526020015f205f3373ffffffffffffffffffffffffffffffffffffffff1673ffffffffffffffffffffffffffffffffffffffff1681526020019081526020015f2054116112d9576040517f08c379a00000000000000000000000000000000000000000000000000000000081526004016112d090614854565b60405180910390fd5b815f8060028111156112ee576112ed613517565b5b60045f8481526020019081526020015f206009015f9054906101000a900460ff16600281111561132157611320613517565b5b14611361576040517f08c379a000000000000000000000000000000000000000000000000000000000815260040161135890613d75565b60405180910390fd5b60045f8581526020019081526020015f206004015442116113b7576040517f08c379a00000000000000000000000000000000000000000000000000000000081526004016113ae90614908565b60405180910390fd5b600160045f8681526020019081526020015f206009015f6101000a81548160ff021916908360028111156113ee576113ed613517565b5b0217905550837fdb9232394d6106fcda07dcda0ef3d7dd5c910776908c279f0e55ae9dc65e804f60045f8781526020019081526020015f2060020160045f8881526020019081526020015f206004015460045f8981526020019081526020015f2060060154604051611462939291906149a7565b60405180910390a250505050565b5f6060805f805f805f8060045f8b81526020019081526020015f206001015f9054906101000a900473ffffffffffffffffffffffffffffffffffffffff16985060045f8b81526020019081526020015f2060020180546114cf90613f35565b80601f01602080910402602001604051908101604052809291908181526020018280546114fb90613f35565b80156115465780601f1061151d57610100808354040283529160200191611546565b820191905f5260205f20905b81548152906001019060200180831161152957829003601f168201915b5050505050975060045f8b81526020019081526020015f20600301805461156c90613f35565b80601f016020809104026020016040519081016040528092919081815260200182805461159890613f35565b80156115e35780601f106115ba576101008083540402835291602001916115e3565b820191905f5260205f20905b8154815290600101906020018083116115c657829003601f168201915b5050505050965060045f8b81526020019081526020015f2060040154955060045f8b81526020019081526020015f2060050154945060045f8b81526020019081526020015f2060060154935060045f8b81526020019081526020015f2060070154925060045f8b81526020019081526020015f2060080154915060045f8b81526020019081526020015f206009015f9054906101000a900460ff1690509193959799909294969850565b815f60055f8381526020019081526020015f205f3373ffffffffffffffffffffffffffffffffffffffff1673ffffffffffffffffffffffffffffffffffffffff1681526020019081526020015f20541161171c576040517f08c379a000000000000000000000000000000000000000000000000000000000815260040161171390614854565b60405180910390fd5b82600280600281111561173257611731613517565b5b60045f8481526020019081526020015f206009015f9054906101000a900460ff16600281111561176557611764613517565b5b146117a5576040517f08c379a000000000000000000000000000000000000000000000000000000000815260040161179c90613d75565b60405180910390fd5b84848063ffffffff1660075f8481526020019081526020015f205f9054906101000a900463ffffffff1663ffffffff1614611815576040517f08c379a000000000000000000000000000000000000000000000000000000000815260040161180c90614295565b60405180910390fd5b611820878733612e38565b15611860576040517f08c379a000000000000000000000000000000000000000000000000000000000815260040161185790614a53565b60405180910390fd5b61186b878733612f45565b156118ab576040517f08c379a00000000000000000000000000000000000000000000000000000000081526004016118a290614ae1565b60405180910390fd5b5f60075f8981526020019081526020015f205f9054906101000a900463ffffffff1663ffffffff1690505f5b81811015611955578763ffffffff166001826118f391906145df565b0361194257600160065f8b81526020019081526020015f20828154811061191d5761191c614347565b5b905f5260205f2090600602016004015f82825461193a91906145df565b925050819055505b808061194d90614aff565b9150506118d7565b5060085f8981526020019081526020015f205f6001896119759190614310565b63ffffffff1663ffffffff1681526020019081526020015f2033908060018154018082558091505060019003905f5260205f20015f9091909190916101000a81548173ffffffffffffffffffffffffffffffffffffffff021916908373ffffffffffffffffffffffffffffffffffffffff160217905550877ffd21b63d56fe3d4851c3b38b5800335b6b1651056961e7299ce755362169be9288604051611a1c9190614612565b60405180910390a25050505050505050565b8060045f8281526020019081526020015f206001015f9054906101000a900473ffffffffffffffffffffffffffffffffffffffff1673ffffffffffffffffffffffffffffffffffffffff163373ffffffffffffffffffffffffffffffffffffffff1614611ad0576040517f08c379a0000000000000000000000000000000000000000000000000000000008152600401611ac790613ce7565b60405180910390fd5b815f806002811115611ae557611ae4613517565b5b60045f8481526020019081526020015f206009015f9054906101000a900460ff166002811115611b1857611b17613517565b5b14611b58576040517f08c379a0000000000000000000000000000000000000000000000000000000008152600401611b4f90613d75565b60405180910390fd5b60045f8581526020019081526020015f206006015460045f8681526020019081526020015f20600501541015611bc3576040517f08c379a0000000000000000000000000000000000000000000000000000000008152600401611bba90614b90565b60405180910390fd5b600260045f8681526020019081526020015f206009015f6101000a81548160ff02191690836002811115611bfa57611bf9613517565b5b0217905550837f4674ab4436b804febf0a1526a0addd752d2762b69048ab01fe978c427a723f7b60045f8781526020019081526020015f2060020160045f8881526020019081526020015f206004015460045f8981526020019081526020015f2060060154604051611c6e939291906149a7565b60405180910390a250505050565b60605f60075f8481526020019081526020015f205f9054906101000a900463ffffffff1663ffffffff1690505f8167ffffffffffffffff811115611cc357611cc26131c1565b5b604051908082528060200260200182016040528015611cfc57816020015b611ce9613052565b815260200190600190039081611ce15790505b5090505f5b82811015611eeb575f60065f8781526020019081526020015f208281548110611d2d57611d2c614347565b5b905f5260205f2090600602019050806040518060e00160405290815f82015f9054906101000a900463ffffffff1663ffffffff1663ffffffff168152602001600182018054611d7b90613f35565b80601f0160208091040260200160405190810160405280929190818152602001828054611da790613f35565b8015611df25780601f10611dc957610100808354040283529160200191611df2565b820191905f5260205f20905b815481529060010190602001808311611dd557829003601f168201915b5050505050815260200160028201548152602001600382015f9054906101000a900473ffffffffffffffffffffffffffffffffffffffff1673ffffffffffffffffffffffffffffffffffffffff1673ffffffffffffffffffffffffffffffffffffffff16815260200160048201548152602001600582015f9054906101000a900460ff166001811115611e8857611e87613517565b5b6001811115611e9a57611e99613517565b5b81526020016005820160019054906101000a900460ff161515151581525050838381518110611ecc57611ecb614347565b5b6020026020010181905250508080611ee390614aff565b915050611d01565b508092505050919050565b60605f60035490505f8167ffffffffffffffff811115611f1957611f186131c1565b5b604051908082528060200260200182016040528015611f5257816020015b611f3f6130b9565b815260200190600190039081611f375790505b5090505f5b828110156121ad575f600182611f6d91906145df565b90505f60045f8381526020019081526020015f20905080604051806101400160405290815f8201548152602001600182015f9054906101000a900473ffffffffffffffffffffffffffffffffffffffff1673ffffffffffffffffffffffffffffffffffffffff1673ffffffffffffffffffffffffffffffffffffffff168152602001600282018054611ffe90613f35565b80601f016020809104026020016040519081016040528092919081815260200182805461202a90613f35565b80156120755780601f1061204c57610100808354040283529160200191612075565b820191905f5260205f20905b81548152906001019060200180831161205857829003601f168201915b5050505050815260200160038201805461208e90613f35565b80601f01602080910402602001604051908101604052809291908181526020018280546120ba90613f35565b80156121055780601f106120dc57610100808354040283529160200191612105565b820191905f5260205f20905b8154815290600101906020018083116120e857829003601f168201915b505050505081526020016004820154815260200160058201548152602001600682015481526020016007820154815260200160088201548152602001600982015f9054906101000a900460ff16600281111561216457612163613517565b5b600281111561217657612175613517565b5b8152505084848151811061218d5761218c614347565b5b6020026020010181905250505080806121a590614aff565b915050611f57565b50809250505090565b6004602052805f5260405f205f91509050805f015490806001015f9054906101000a900473ffffffffffffffffffffffffffffffffffffffff169080600201805461220090613f35565b80601f016020809104026020016040519081016040528092919081815260200182805461222c90613f35565b80156122775780601f1061224e57610100808354040283529160200191612277565b820191905f5260205f20905b81548152906001019060200180831161225a57829003601f168201915b50505050509080600301805461228c90613f35565b80601f01602080910402602001604051908101604052809291908181526020018280546122b890613f35565b80156123035780601f106122da57610100808354040283529160200191612303565b820191905f5260205f20905b8154815290600101906020018083116122e657829003601f168201915b505050505090806004015490806005015490806006015490806007015490806008015490806009015f9054906101000a900460ff1690508a565b600160035f82825461234f91906145df565b925050819055505f670de0b6b3a76400008261236b9190613ec7565b90505f60405180610140016040528060035481526020013373ffffffffffffffffffffffffffffffffffffffff1681526020018781526020018681526020018581526020015f81526020018381526020015f81526020015f81526020015f60028111156123db576123da613517565b5b81525090508060045f60035481526020019081526020015f205f820151815f01556020820151816001015f6101000a81548173ffffffffffffffffffffffffffffffffffffffff021916908373ffffffffffffffffffffffffffffffffffffffff16021790555060408201518160020190816124579190614102565b50606082015181600301908161246d9190614102565b506080820151816004015560a0820151816005015560c0820151816006015560e082015181600701556101008201518160080155610120820151816009015f6101000a81548160ff021916908360028111156124cc576124cb613517565b5b02179055509050505f60075f60035481526020019081526020015f205f6101000a81548163ffffffff021916908363ffffffff1602179055506003547f493a8ea55e13538971dc7a8db3b5ac7e6a8de74e7c0c2e948c70fa2ac16ea489338888888760405161253f959493929190614bae565b60405180910390a2505050505050565b5f60055f8481526020019081526020015f205f8373ffffffffffffffffffffffffffffffffffffffff1673ffffffffffffffffffffffffffffffffffffffff1681526020019081526020015f2054905092915050565b815f60055f8381526020019081526020015f205f3373ffffffffffffffffffffffffffffffffffffffff1673ffffffffffffffffffffffffffffffffffffffff1681526020019081526020015f205411612634576040517f08c379a000000000000000000000000000000000000000000000000000000000815260040161262b90614854565b60405180910390fd5b82600280600281111561264a57612649613517565b5b60045f8481526020019081526020015f206009015f9054906101000a900460ff16600281111561267d5761267c613517565b5b146126bd576040517f08c379a00000000000000000000000000000000000000000000000000000000081526004016126b490613d75565b60405180910390fd5b84848063ffffffff1660075f8481526020019081526020015f205f9054906101000a900463ffffffff1663ffffffff161461272d576040517f08c379a000000000000000000000000000000000000000000000000000000000815260040161272490614295565b60405180910390fd5b612738878733612e38565b15612778576040517f08c379a000000000000000000000000000000000000000000000000000000000815260040161276f90614c7d565b60405180910390fd5b612783878733612f45565b156127c3576040517f08c379a00000000000000000000000000000000000000000000000000000000081526004016127ba90614d0b565b60405180910390fd5b5f60075f8981526020019081526020015f205f9054906101000a900463ffffffff1663ffffffff1690505f5b818110156128db578763ffffffff1660018261280b91906145df565b036128c8575f60065f8b81526020019081526020015f20828154811061283457612833614347565b5b905f5260205f209060060201600401541461289757600160065f8b81526020019081526020015f20828154811061286e5761286d614347565b5b905f5260205f2090600602016004015f82825461288b91906145ac565b925050819055506128c7565b5f60065f8b81526020019081526020015f2082815481106128bb576128ba614347565b5b905f5260205f20905050505b5b80806128d390614aff565b9150506127ef565b5060095f8981526020019081526020015f205f6001896128fb9190614310565b63ffffffff1663ffffffff1681526020019081526020015f2033908060018154018082558091505060019003905f5260205f20015f9091909190916101000a81548173ffffffffffffffffffffffffffffffffffffffff021916908373ffffffffffffffffffffffffffffffffffffffff160217905550877f9c710ee7ed817a833424800d582393604b4cb4ea3f3f3b50da958c569b9309e5886040516129a29190614612565b60405180910390a25050505050505050565b805f60055f8381526020019081526020015f205f3373ffffffffffffffffffffffffffffffffffffffff1673ffffffffffffffffffffffffffffffffffffffff1681526020019081526020015f205411612a43576040517f08c379a0000000000000000000000000000000000000000000000000000000008152600401612a3a90614854565b60405180910390fd5b816001806002811115612a5957612a58613517565b5b60045f8481526020019081526020015f206009015f9054906101000a900460ff166002811115612a8c57612a8b613517565b5b14612acc576040517f08c379a0000000000000000000000000000000000000000000000000000000008152600401612ac390613d75565b60405180910390fd5b612ad4612deb565b60045f8581526020019081526020015f20600401544211612b2a576040517f08c379a0000000000000000000000000000000000000000000000000000000008152600401612b2190614d99565b60405180910390fd5b5f3390505f60055f8781526020019081526020015f205f3373ffffffffffffffffffffffffffffffffffffffff1673ffffffffffffffffffffffffffffffffffffffff1681526020019081526020015f205490505f8273ffffffffffffffffffffffffffffffffffffffff1682604051612ba3906144e3565b5f6040518083038185875af1925050503d805f8114612bdd576040519150601f19603f3d011682016040523d82523d5f602084013e612be2565b606091505b5050905080612c26576040517f08c379a0000000000000000000000000000000000000000000000000000000008152600401612c1d90614567565b60405180910390fd5b867fdab6c60b0a2712cc0de4026608821d29de83da8920bc8b93017005799f69f6608484604051612c58929190614e09565b60405180910390a28160045f8981526020019081526020015f206005015f828254612c8391906145ac565b92505081905550600160045f8981526020019081526020015f206007015f828254612cae91906145ac565b92505081905550505050612cc0612e2f565b50505050565b6006602052815f5260405f208181548110612cdf575f80fd5b905f5260205f2090600602015f9150915050805f015f9054906101000a900463ffffffff1690806001018054612d1490613f35565b80601f0160208091040260200160405190810160405280929190818152602001828054612d4090613f35565b8015612d8b5780601f10612d6257610100808354040283529160200191612d8b565b820191905f5260205f20905b815481529060010190602001808311612d6e57829003601f168201915b505050505090806002015490806003015f9054906101000a900473ffffffffffffffffffffffffffffffffffffffff1690806004015490806005015f9054906101000a900460ff16908060050160019054906101000a900460ff16905087565b60025f5403612e26576040517f3ee5aeb500000000000000000000000000000000000000000000000000000000815260040160405180910390fd5b60025f81905550565b60015f81905550565b5f805f90505b60085f8681526020019081526020015f205f600186612e5d9190614310565b63ffffffff1663ffffffff1681526020019081526020015f2080549050811015612f3d578273ffffffffffffffffffffffffffffffffffffffff1660085f8781526020019081526020015f205f600187612eb79190614310565b63ffffffff1663ffffffff1681526020019081526020015f208281548110612ee257612ee1614347565b5b905f5260205f20015f9054906101000a900473ffffffffffffffffffffffffffffffffffffffff1673ffffffffffffffffffffffffffffffffffffffff1603612f2a57600191505b8080612f3590614aff565b915050612e3e565b509392505050565b5f805f90505b60095f8681526020019081526020015f205f600186612f6a9190614310565b63ffffffff1663ffffffff1681526020019081526020015f208054905081101561304a578273ffffffffffffffffffffffffffffffffffffffff1660095f8781526020019081526020015f205f600187612fc49190614310565b63ffffffff1663ffffffff1681526020019081526020015f208281548110612fef57612fee614347565b5b905f5260205f20015f9054906101000a900473ffffffffffffffffffffffffffffffffffffffff1673ffffffffffffffffffffffffffffffffffffffff160361303757600191505b808061304290614aff565b915050612f4b565b509392505050565b6040518060e001604052805f63ffffffff168152602001606081526020015f81526020015f73ffffffffffffffffffffffffffffffffffffffff1681526020015f81526020015f60018111156130ab576130aa613517565b5b81526020015f151581525090565b6040518061014001604052805f81526020015f73ffffffffffffffffffffffffffffffffffffffff16815260200160608152602001606081526020015f81526020015f81526020015f81526020015f81526020015f81526020015f600281111561312657613125613517565b5b81525090565b5f604051905090565b5f80fd5b5f80fd5b5f819050919050565b61314f8161313d565b8114613159575f80fd5b50565b5f8135905061316a81613146565b92915050565b5f63ffffffff82169050919050565b61318881613170565b8114613192575f80fd5b50565b5f813590506131a38161317f565b92915050565b5f80fd5b5f80fd5b5f601f19601f8301169050919050565b7f4e487b71000000000000000000000000000000000000000000000000000000005f52604160045260245ffd5b6131f7826131b1565b810181811067ffffffffffffffff82111715613216576132156131c1565b5b80604052505050565b5f61322861312c565b905061323482826131ee565b919050565b5f67ffffffffffffffff821115613253576132526131c1565b5b61325c826131b1565b9050602081019050919050565b828183375f83830152505050565b5f61328961328484613239565b61321f565b9050828152602081018484840111156132a5576132a46131ad565b5b6132b0848285613269565b509392505050565b5f82601f8301126132cc576132cb6131a9565b5b81356132dc848260208601613277565b91505092915050565b5f805f80608085870312156132fd576132fc613135565b5b5f61330a8782880161315c565b945050602061331b87828801613195565b935050604085013567ffffffffffffffff81111561333c5761333b613139565b5b613348878288016132b8565b92505060606133598782880161315c565b91505092959194509250565b61336e8161313d565b82525050565b5f6020820190506133875f830184613365565b92915050565b5f73ffffffffffffffffffffffffffffffffffffffff82169050919050565b5f6133b68261338d565b9050919050565b6133c6816133ac565b81146133d0575f80fd5b50565b5f813590506133e1816133bd565b92915050565b5f80604083850312156133fd576133fc613135565b5b5f61340a8582860161315c565b925050602061341b858286016133d3565b9150509250929050565b5f806040838503121561343b5761343a613135565b5b5f6134488582860161315c565b925050602061345985828601613195565b9150509250929050565b5f6020828403121561347857613477613135565b5b5f6134858482850161315c565b91505092915050565b613497816133ac565b82525050565b5f81519050919050565b5f82825260208201905092915050565b5f5b838110156134d45780820151818401526020810190506134b9565b5f8484015250505050565b5f6134e98261349d565b6134f381856134a7565b93506135038185602086016134b7565b61350c816131b1565b840191505092915050565b7f4e487b71000000000000000000000000000000000000000000000000000000005f52602160045260245ffd5b6003811061355557613554613517565b5b50565b5f81905061356582613544565b919050565b5f61357482613558565b9050919050565b6135848161356a565b82525050565b5f6101208201905061359e5f83018c61348e565b81810360208301526135b0818b6134df565b905081810360408301526135c4818a6134df565b90506135d36060830189613365565b6135e06080830188613365565b6135ed60a0830187613365565b6135fa60c0830186613365565b61360760e0830185613365565b61361561010083018461357b565b9a9950505050505050505050565b5f81519050919050565b5f82825260208201905092915050565b5f819050602082019050919050565b61365581613170565b82525050565b5f82825260208201905092915050565b5f6136758261349d565b61367f818561365b565b935061368f8185602086016134b7565b613698816131b1565b840191505092915050565b6136ac8161313d565b82525050565b5f6136bc8261338d565b9050919050565b6136cc816136b2565b82525050565b600281106136e3576136e2613517565b5b50565b5f8190506136f3826136d2565b919050565b5f613702826136e6565b9050919050565b613712816136f8565b82525050565b5f8115159050919050565b61372c81613718565b82525050565b5f60e083015f8301516137475f86018261364c565b506020830151848203602086015261375f828261366b565b915050604083015161377460408601826136a3565b50606083015161378760608601826136c3565b50608083015161379a60808601826136a3565b5060a08301516137ad60a0860182613709565b5060c08301516137c060c0860182613723565b508091505092915050565b5f6137d68383613732565b905092915050565b5f602082019050919050565b5f6137f482613623565b6137fe818561362d565b9350836020820285016138108561363d565b805f5b8581101561384b578484038952815161382c85826137cb565b9450613837836137de565b925060208a01995050600181019050613813565b50829750879550505050505092915050565b5f6020820190508181035f83015261387581846137ea565b905092915050565b5f81519050919050565b5f82825260208201905092915050565b5f819050602082019050919050565b6138af8161356a565b82525050565b5f61014083015f8301516138cb5f8601826136a3565b5060208301516138de60208601826136c3565b50604083015184820360408601526138f6828261366b565b91505060608301518482036060860152613910828261366b565b915050608083015161392560808601826136a3565b5060a083015161393860a08601826136a3565b5060c083015161394b60c08601826136a3565b5060e083015161395e60e08601826136a3565b506101008301516139736101008601826136a3565b506101208301516139886101208601826138a6565b508091505092915050565b5f61399e83836138b5565b905092915050565b5f602082019050919050565b5f6139bc8261387d565b6139c68185613887565b9350836020820285016139d885613897565b805f5b85811015613a1357848403895281516139f48582613993565b94506139ff836139a6565b925060208a019950506001810190506139db565b50829750879550505050505092915050565b5f6020820190508181035f830152613a3d81846139b2565b905092915050565b613a4e816136b2565b82525050565b5f61014082019050613a685f83018d613365565b613a75602083018c613a45565b8181036040830152613a87818b6134df565b90508181036060830152613a9b818a6134df565b9050613aaa6080830189613365565b613ab760a0830188613365565b613ac460c0830187613365565b613ad160e0830186613365565b613adf610100830185613365565b613aed61012083018461357b565b9b9a5050505050505050505050565b5f805f8060808587031215613b1457613b13613135565b5b5f85013567ffffffffffffffff811115613b3157613b30613139565b5b613b3d878288016132b8565b945050602085013567ffffffffffffffff811115613b5e57613b5d613139565b5b613b6a878288016132b8565b9350506040613b7b8782880161315c565b9250506060613b8c8782880161315c565b91505092959194509250565b5f8060408385031215613bae57613bad613135565b5b5f613bbb8582860161315c565b9250506020613bcc8582860161315c565b9150509250929050565b613bdf81613170565b82525050565b613bee816136f8565b82525050565b613bfd81613718565b82525050565b5f60e082019050613c165f83018a613bd6565b8181036020830152613c2881896134df565b9050613c376040830188613365565b613c446060830187613a45565b613c516080830186613365565b613c5e60a0830185613be5565b613c6b60c0830184613bf4565b98975050505050505050565b7f556e617574686f72697a6564206163636573732e204f6e6c792070726f6a65635f8201527f74206f776e65722063616e2075736520746869732066756e6374696f6e000000602082015250565b5f613cd1603d836134a7565b9150613cdc82613c77565b604082019050919050565b5f6020820190508181035f830152613cfe81613cc5565b9050919050565b7f556e6d61746368696e67207374617465732e20496e76616c6964206f706572615f8201527f74696f6e00000000000000000000000000000000000000000000000000000000602082015250565b5f613d5f6024836134a7565b9150613d6a82613d05565b604082019050919050565b5f6020820190508181035f830152613d8c81613d53565b9050919050565b7f496e73756666696369656e742066756e647300000000000000000000000000005f82015250565b5f613dc76012836134a7565b9150613dd282613d93565b602082019050919050565b5f6020820190508181035f830152613df481613dbb565b9050919050565b7f4e487b71000000000000000000000000000000000000000000000000000000005f52601160045260245ffd5b5f613e3282613170565b9150613e3d83613170565b9250828201905063ffffffff811115613e5957613e58613dfb565b5b92915050565b7f496e636f72726563742072657175657374206e756d62657200000000000000005f82015250565b5f613e936018836134a7565b9150613e9e82613e5f565b602082019050919050565b5f6020820190508181035f830152613ec081613e87565b9050919050565b5f613ed18261313d565b9150613edc8361313d565b9250828202613eea8161313d565b91508282048414831517613f0157613f00613dfb565b5b5092915050565b7f4e487b71000000000000000000000000000000000000000000000000000000005f52602260045260245ffd5b5f6002820490506001821680613f4c57607f821691505b602082108103613f5f57613f5e613f08565b5b50919050565b5f819050815f5260205f209050919050565b5f6020601f8301049050919050565b5f82821b905092915050565b5f60088302613fc17fffffffffffffffffffffffffffffffffffffffffffffffffffffffffffffffff82613f86565b613fcb8683613f86565b95508019841693508086168417925050509392505050565b5f819050919050565b5f614006614001613ffc8461313d565b613fe3565b61313d565b9050919050565b5f819050919050565b61401f83613fec565b61403361402b8261400d565b848454613f92565b825550505050565b5f90565b61404761403b565b614052818484614016565b505050565b5b818110156140755761406a5f8261403f565b600181019050614058565b5050565b601f8211156140ba5761408b81613f65565b61409484613f77565b810160208510156140a3578190505b6140b76140af85613f77565b830182614057565b50505b505050565b5f82821c905092915050565b5f6140da5f19846008026140bf565b1980831691505092915050565b5f6140f283836140cb565b9150826002028217905092915050565b61410b8261349d565b67ffffffffffffffff811115614124576141236131c1565b5b61412e8254613f35565b614139828285614079565b5f60209050601f83116001811461416a575f8415614158578287015190505b61416285826140e7565b8655506141c9565b601f19841661417886613f65565b5f5b8281101561419f5784890151825560018201915060208501945060208101905061417a565b868310156141bc57848901516141b8601f8916826140cb565b8355505b6001600288020188555050505b505050505050565b5f6040820190508181035f8301526141e981856134df565b90506141f86020830184613365565b9392505050565b7f54686973206973206e6f7420746865206c6174657374207769746864726177615f8201527f6c20726571756573742e20506c6561736520636865636b20616761696e20616e60208201527f6420747279206c61746572000000000000000000000000000000000000000000604082015250565b5f61427f604b836134a7565b915061428a826141ff565b606082019050919050565b5f6020820190508181035f8301526142ac81614273565b9050919050565b7f4e487b71000000000000000000000000000000000000000000000000000000005f52601260045260245ffd5b5f6142ea8261313d565b91506142f58361313d565b925082614305576143046142b3565b5b828204905092915050565b5f61431a82613170565b915061432583613170565b9250828203905063ffffffff81111561434157614340613dfb565b5b92915050565b7f4e487b71000000000000000000000000000000000000000000000000000000005f52603260045260245ffd5b7f4d6f7265207468616e2068616c662074686520746f74616c206465706f7369745f8201527f6f7273206e65656420746f20617070726f7665207769746864726177616c207260208201527f6571756573740000000000000000000000000000000000000000000000000000604082015250565b5f6143f46046836134a7565b91506143ff82614374565b606082019050919050565b5f6020820190508181035f830152614421816143e8565b9050919050565b7f5769746864726177616c20686173206c617265616479206265656e206d6164655f8201527f20666f7220746869732072657175657374000000000000000000000000000000602082015250565b5f6144826031836134a7565b915061448d82614428565b604082019050919050565b5f6020820190508181035f8301526144af81614476565b9050919050565b5f81905092915050565b50565b5f6144ce5f836144b6565b91506144d9826144c0565b5f82019050919050565b5f6144ed826144c3565b9150819050919050565b7f5472616e73616374696f6e206661696c65642e20506c656173652074727920615f8201527f6761696e206c617465722e000000000000000000000000000000000000000000602082015250565b5f614551602b836134a7565b915061455c826144f7565b604082019050919050565b5f6020820190508181035f83015261457e81614545565b9050919050565b5f6040820190506145985f830185613bd6565b6145a56020830184613365565b9392505050565b5f6145b68261313d565b91506145c18361313d565b92508282039050818111156145d9576145d8613dfb565b5b92915050565b5f6145e98261313d565b91506145f48361313d565b925082820190508082111561460c5761460b613dfb565b5b92915050565b5f6020820190506146255f830184613bd6565b92915050565b7f50726f6a656374204944206f7574206f662072616e67650000000000000000005f82015250565b5f61465f6017836134a7565b915061466a8261462b565b602082019050919050565b5f6020820190508181035f83015261468c81614653565b9050919050565b7f496e76616c6964207472616e73616374696f6e2e20506c656173652073656e645f8201527f2076616c696420616d6f756e747320746f207468652070726f6a656374000000602082015250565b5f6146ed603d836134a7565b91506146f882614693565b604082019050919050565b5f6020820190508181035f83015261471a816146e1565b9050919050565b7f436f6e747269627574696f6e732063616e6e6f74206265206d61646520746f205f8201527f746869732070726f6a65637420616e796d6f72652e0000000000000000000000602082015250565b5f61477b6035836134a7565b915061478682614721565b604082019050919050565b5f6020820190508181035f8301526147a88161476f565b9050919050565b5f6060820190506147c25f83018661348e565b6147cf6020830185613365565b6147dc6040830184613365565b949350505050565b7f556e617574686f72697a6564206163636573732e204f6e6c792070726f6a65635f8201527f742066756e646572732063616e2075736520746869732066756e6374696f6e2e602082015250565b5f61483e6040836134a7565b9150614849826147e4565b604082019050919050565b5f6020820190508181035f83015261486b81614832565b9050919050565b7f496e76616c696420726571756573742e2043616e206f6e6c792062652063616c5f8201527f6c65642061667465722070726f6a65637420646561646c696e6520697320726560208201527f6163686564000000000000000000000000000000000000000000000000000000604082015250565b5f6148f26045836134a7565b91506148fd82614872565b606082019050919050565b5f6020820190508181035f83015261491f816148e6565b9050919050565b5f815461493281613f35565b61493c81866134a7565b9450600182165f8114614956576001811461496c5761499e565b60ff19831686528115156020028601935061499e565b61497585613f65565b5f5b8381101561499657815481890152600182019150602081019050614977565b808801955050505b50505092915050565b5f6060820190508181035f8301526149bf8186614926565b90506149ce6020830185613365565b6149db6040830184613365565b949350505050565b7f496e76616c6964206f7065726174696f6e2e20596f75206861766520616c72655f8201527f61647920617070726f7665642074686973207265717565737400000000000000602082015250565b5f614a3d6039836134a7565b9150614a48826149e3565b604082019050919050565b5f6020820190508181035f830152614a6a81614a31565b9050919050565b7f496e76616c6964206f7065726174696f6e2e20596f7520686176652072656a655f8201527f6374656420746869732072657175657374000000000000000000000000000000602082015250565b5f614acb6031836134a7565b9150614ad682614a71565b604082019050919050565b5f6020820190508181035f830152614af881614abf565b9050919050565b5f614b098261313d565b91507fffffffffffffffffffffffffffffffffffffffffffffffffffffffffffffffff8203614b3b57614b3a613dfb565b5b600182019050919050565b7f446964206e6f74207265636569766520656e6f7567682066756e6473000000005f82015250565b5f614b7a601c836134a7565b9150614b8582614b46565b602082019050919050565b5f6020820190508181035f830152614ba781614b6e565b9050919050565b5f60a082019050614bc15f83018861348e565b8181036020830152614bd381876134df565b90508181036040830152614be781866134df565b9050614bf66060830185613365565b614c036080830184613365565b9695505050505050565b7f496e76616c6964206f7065726174696f6e2e20596f75206861766520617070725f8201527f6f76656420746869732072657175657374000000000000000000000000000000602082015250565b5f614c676031836134a7565b9150614c7282614c0d565b604082019050919050565b5f6020820190508181035f830152614c9481614c5b565b9050919050565b7f496e76616c6964206f7065726174696f6e2e20596f75206861766520616c72655f8201527f6164792072656a65637465642074686973207265717565737400000000000000602082015250565b5f614cf56039836134a7565b9150614d0082614c9b565b604082019050919050565b5f6020820190508181035f830152614d2281614ce9565b9050919050565b7f50726f6a65637420646561646c696e65206861736e2774206265656e207265615f8201527f6368656420796574000000000000000000000000000000000000000000000000602082015250565b5f614d836028836134a7565b9150614d8e82614d29565b604082019050919050565b5f6020820190508181035f830152614db081614d77565b9050919050565b5f614dd1614dcc614dc78461338d565b613fe3565b61338d565b9050919050565b5f614de282614db7565b9050919050565b5f614df382614dd8565b9050919050565b614e0381614de9565b82525050565b5f604082019050614e1c5f830185614dfa565b614e296020830184613365565b939250505056fea264697066735822122027f8ee85133780bfe807111a4629524bdd43746cefdb39a221b9fa83c31bd73664736f6c63430008150033",
  "immutableReferences": {},
  "source": "// SPDX-License-Identifier: MIT\npragma solidity ^0.8.4;\n// import \"@openzeppelin/contracts/utils/math/SafeMath.sol\";\n// import \"@openzeppelin/contracts/security/ReentrancyGuard.sol\";\n// import \"@openzeppelin/contracts/utils/math/SafeMath.sol\";\n\nimport \"@openzeppelin/contracts/utils/ReentrancyGuard.sol\";\ncontract CrowdFund is ReentrancyGuard {\n    // using SafeMath for uint256;\n/*===== Events =====*/\n    event NewProjectCreated(\n        uint256 indexed id,\n        address projectCreator,\n        string projectTitle,\n        string projectDesc,\n        uint256 projectDeadline,\n        uint256 goalAmount\n    );\n    \nevent ExpireFundraise(\n        uint256 indexed id,\n        string name,\n        uint256 projectDeadline,\n        uint256 goal\n    );\n    \n    event SuccessFundRaise(\n        uint256 indexed id,\n        string name,\n        uint256 projectDeadline,\n        uint256 goal\n    );\n    \n    event SuccessButContinueFundRaise(\n        uint256 indexed id,\n        string name,\n        uint256 projectDeadline,\n        uint256 goal\n    );\nevent FundsReceive(\n        uint256 indexed id,\n        address contributor,\n        uint256 amount,\n        uint256 totalPledged\n    );\nevent NewWithdrawalRequest(\n        uint256 indexed id,\n        string description,\n        uint256 amount\n    );\nevent GenerateRefund(\n        uint256 indexed id,\n        address refundRequestUser,\n        uint256 refundAmt\n    );\nevent ApproveRequest(uint256 indexed _id, uint32 _withdrawalRequestIndex);\nevent RejectRequest(uint256 indexed _id, uint32 _withdrawalRequestIndex);\nevent TransferRequestFunds(\n        uint256 indexed _id,\n        uint32 _withdrawalRequestIndex\n    );\nevent PayCreator( uint256 indexed _id, uint32 _withdrawalRequestIndex, uint256 _amountTransfered);\nevent PayPlatform(uint256 indexed _id, uint32 _withdrawalRequestIndex, uint256 _amountTransfered);\n\n/*===== State variables =====*/\n    address payable platformAdmin;\nenum State {\n        Fundraise,\n        Expire,\n        Success\n    }\nenum Withdrawal {\n        Allow,\n        Reject\n    }\nstruct Project {\n        // project ID\n        uint256 id;\n        // address of the creator of project\n        address payable creator;\n        // name of the project\n        string name;\n        // description of the project\n        string description;\n        // end of fundraising date\n        uint256 projectDeadline;\n        // total amount that has been pledged until this point\n        uint256 totalPledged;\n        // total amount needed for a successful campaign\n        uint256 goal;\n        // number of depositors\n        uint256 totalDepositors;\n        // total funds withdrawn from project\n        uint256 totalWithdrawn;\n        // current state of the fundraise\n        State currentState;\n        // holds URL of IPFS upload\n        // string ipfsURL;\n    }\nstruct WithdrawalRequest {\n        uint32 index;\n        // purpose of withdrawal\n        string description;\n        // amount of withdrawal requested\n        uint256 withdrawalAmount;\n        // project owner address\n        address payable recipient;\n        // total votes received for request\n        uint256 approvedVotes;\n        // current state of the withdrawal request\n        Withdrawal currentWithdrawalState;\n        // hash of the ipfs storage\n        // string ipfsHash;\n        // boolean to represent if amount has been withdrawn\n        bool withdrawn;\n    }\nmapping(address => uint) balances;\n// project states\n    uint256 public projectCount;\n    mapping(uint256 => Project) public idToProject;\n    // project id => contributor => contribution\n    mapping(uint256 => mapping(address => uint256)) public contributions;\n// withdrawal requests\n    mapping(uint256 => WithdrawalRequest[]) public idToWithdrawalRequests;\n    // project ID => withdrawal request Index\n    mapping(uint256 => uint32) latestWithdrawalIndex;\n// project id => request number => address of contributors\n    mapping(uint256 => mapping(uint32 => address[])) approvals;\n    mapping(uint256 => mapping(uint32 => address[])) rejections;\n\n    /*===== Modifiers =====*/\n    modifier checkState(uint256 _id, State _state) {\n        require(\n            idToProject[_id].currentState == _state,\n            \"Unmatching states. Invalid operation\"\n        );\n        _;\n    }\nmodifier onlyAdmin() {\n        require(\n            msg.sender == platformAdmin,\n            \"Unauthorized access. Only admin can use this function\"\n        );\n        _;\n    }\nmodifier onlyProjectOwner(uint256 _id) {\n        require(\n            msg.sender == idToProject[_id].creator,\n            \"Unauthorized access. Only project owner can use this function\"\n        );\n        _;\n    }\nmodifier onlyProjectDonor(uint256 _id) {\n        require(\n            contributions[_id][msg.sender] > 0,\n            \"Unauthorized access. Only project funders can use this function.\"\n        );\n        _;\n    }\nmodifier checkLatestWithdrawalIndex(\n        uint256 _id,\n        uint32 _withdrawalRequestIndex\n    ) {\n        require(\n            latestWithdrawalIndex[_id] == _withdrawalRequestIndex,\n            \"This is not the latest withdrawal request. Please check again and try later\"\n        );\n        _;\n    }\n\n    constructor() ReentrancyGuard() {\n        platformAdmin = payable(msg.sender);\n        projectCount = 0;\n    }\n// make contract payable\n    fallback() external payable {}\n    receive() external payable {\n        platformAdmin.transfer(msg.value);\n    }\n/*===== Functions  =====*/\n/** @dev Function to start a new project.\n     * @param _name Name of the project\n     * @param _description Project Description\n     * @param _projectDeadline Total days to end of fundraise\n     * @param _goalEth Project goal in ETH\n     */\n    function createNewProject(\n        string memory _name,\n        string memory _description,\n        uint256 _projectDeadline,\n        uint256 _goalEth\n    ) public {\n        // update ID\n        projectCount += 1;\n        // log goal as wei\n        uint256 _goal = _goalEth * 1e18;\n        // create new fundraise object\n        Project memory newFR = Project({\n            id: projectCount,\n            creator: payable(msg.sender),\n            name: _name,\n            description: _description,\n            projectDeadline: _projectDeadline,\n            totalPledged: 0,\n            goal: _goal,\n            currentState: State.Fundraise,\n            totalDepositors: 0,\n            totalWithdrawn: 0\n        });\n        // update mapping of id to new project\n        idToProject[projectCount] = newFR;\n        // initiate total withdrawal requests \n        latestWithdrawalIndex[projectCount] = 0;\n        // emit event\n        emit NewProjectCreated(\n            projectCount,\n            msg.sender,\n            _name,\n            _description,\n            _projectDeadline,\n            _goal\n        );\n    }\n/** @dev Function to make a contribution to the project\n     * @param _id Project ID where contributions are to be made\n     */\n    function contributeFunds(uint256 _id)\n        public\n        payable\n        checkState(_id, State.Fundraise)\n        nonReentrant()\n    {\n        require(_id <= projectCount, \"Project ID out of range\");\n        require(\n            msg.value > 0,\n            \"Invalid transaction. Please send valid amounts to the project\"\n        );\n        require(\n            block.timestamp <= idToProject[_id].projectDeadline,\n            \"Contributions cannot be made to this project anymore.\"\n        );\n        // transfer contributions to contract address\n        balances[address(this)] += msg.value;\n       // add to contribution\n        contributions[_id][msg.sender] += msg.value;\n        // increase total contributions pledged to the project\n        idToProject[_id].totalPledged += msg.value;\n        // add one to total number of depositors for this project\n        idToProject[_id].totalDepositors += 1;\n        emit FundsReceive(\n            _id,\n            msg.sender,\n            msg.value,\n            idToProject[_id].totalPledged\n        );\n    }\n/** @dev Function to end fundraising drive\n    * @param _id Project ID\n    */\n    function endContributionsExpire(uint256 _id) \n        public \n        onlyProjectDonor(_id)\n        checkState(_id, State.Fundraise) \n        {\n            require(\n                block.timestamp > idToProject[_id].projectDeadline,\n                \"Invalid request. Can only be called after project deadline is reached\"\n            );\n            idToProject[_id].currentState = State.Expire;\n            emit ExpireFundraise(_id,\n                idToProject[_id].name,\n                idToProject[_id].projectDeadline,\n                idToProject[_id].goal\n            );\n        }\n    \n    /** @dev Function to end fundraising drive with success is total pledged higher than goal. Irrespective of deadline\n    * @param _id Project ID\n    */\n    function endContributionsSuccess(uint256 _id) \n        public \n        onlyProjectOwner(_id)\n        checkState(_id, State.Fundraise) \n        {\n            require(idToProject[_id].totalPledged >= idToProject[_id].goal, \"Did not receive enough funds\");\n            idToProject[_id].currentState = State.Success;\n            emit SuccessFundRaise(\n                _id,\n                idToProject[_id].name,\n                idToProject[_id].projectDeadline,\n                idToProject[_id].goal\n            );                \n        }\n/** @dev Function to get refund on expired projects\n     * @param _id Project ID\n     */\n    function getRefund(uint256 _id)\n        public\n        payable\n        onlyProjectDonor(_id)\n        checkState(_id, State.Expire)\n        nonReentrant()\n    {\n        require(\n            block.timestamp > idToProject[_id].projectDeadline,\n            \"Project deadline hasn't been reached yet\"\n        );\n        address payable _contributor = payable(msg.sender);\n        uint256 _amount = contributions[_id][msg.sender];\n        (bool success, ) = _contributor.call{value: _amount}(\"\");\n        require(success, \"Transaction failed. Please try again later.\");\n        emit GenerateRefund(_id, _contributor, _amount);\n        // update project state\n        idToProject[_id].totalPledged -= _amount;\n        idToProject[_id].totalDepositors -= 1;\n    }\n/** @dev Function to create a request for withdrawal of funds\n    * @param _id Project ID\n    * @param _requestNumber Index of the request\n    * @param _description  Purpose of withdrawal\n    * @param _amount Amount of withdrawal requested in ETH\n    */\n    function createWithdrawalRequest(\n        uint256 _id,\n        uint32 _requestNumber,\n        string memory _description,\n        uint256 _amount\n    ) public onlyProjectOwner(_id) checkState(_id, State.Success){\n        require(idToProject[_id].totalWithdrawn < idToProject[_id].totalPledged, \"Insufficient funds\");\n        require(_requestNumber == latestWithdrawalIndex[_id] + 1, \"Incorrect request number\");\n        // convert ETH to Wei units\n        uint256 _withdraw = _amount * 1e18;\n        // create new withdrawal request\n        WithdrawalRequest memory newWR = WithdrawalRequest({\n            index: _requestNumber,\n            description: _description,\n            withdrawalAmount: _withdraw,\n            // funds withdrawn to project owner\n            recipient: idToProject[_id].creator,\n            // initialized with no votes for request\n            approvedVotes: 0,\n            // state changes on quorum\n            currentWithdrawalState: Withdrawal.Reject,\n            withdrawn: false\n        });\n        // update project to request mapping\n        idToWithdrawalRequests[_id].push(newWR);\n        \n        latestWithdrawalIndex[_id] += 1;\n        // emit event\n        emit NewWithdrawalRequest(_id, _description, _amount);\n    }\n/** @dev Function to check whether a given address has approved a specific request\n    * @param _id Project ID\n    * @param _withdrawalRequestIndex Index of the withdrawal request\n    * @param _checkAddress Address of the request initiator\n    */\n    function _checkAddressInApprovalsIterator(\n        uint256 _id,\n        uint32 _withdrawalRequestIndex, \n        address _checkAddress\n    )\n        internal\n        view \n        returns(bool approved) \n    {\n        // iterate over the array specific to this id and withdrawal request\n        for (uint256 i = 0; i < approvals[_id][_withdrawalRequestIndex - 1].length; i++) {\n            // if address is in the array, return true\n            if(approvals[_id][_withdrawalRequestIndex - 1][i] == _checkAddress) {\n                approved = true;\n            }\n        }\n    }\n/** @dev Function to check whether a given address has rejected a specific request\n    * @param _id Project ID\n    * @param _withdrawalRequestIndex Index of the withdrawal request\n    * @param _checkAddress Address of the request initiator\n    */\n    function _checkAddressInRejectionIterator(\n        uint256 _id,\n        uint32 _withdrawalRequestIndex, \n        address _checkAddress\n    ) \n        internal\n        view\n        returns(bool rejected) \n    {\n        // iterate over the array specific to this id and withdrawal request\n        for (uint256 i = 0; i < rejections[_id][_withdrawalRequestIndex - 1].length; i++) {\n            // if address is in the array, return true\n            if(rejections[_id][_withdrawalRequestIndex - 1][i] == _checkAddress) {\n                rejected = true;\n            }\n        }\n    }\n/** @dev Function to approve withdrawal of funds\n    * @param _id Project ID\n    * @param _withdrawalRequestIndex Index of withdrawal request\n    */\n    function approveWithdrawalRequest(\n        uint256 _id,\n        uint32 _withdrawalRequestIndex\n    )\n        public\n        onlyProjectDonor(_id)\n        checkState(_id, State.Success)\n        checkLatestWithdrawalIndex(_id, _withdrawalRequestIndex)\n    {\n        // confirm msg.sender hasn't approved request yet\n        require(!_checkAddressInApprovalsIterator(_id, _withdrawalRequestIndex, msg.sender), \n                \"Invalid operation. You have already approved this request\");\n         require(!_checkAddressInRejectionIterator(_id, _withdrawalRequestIndex, msg.sender), \n                \"Invalid operation. You have rejected this request\");\n        // get total withdrawal requests made\n        uint256 _lastWithdrawal = latestWithdrawalIndex[_id];\n       // iterate over all requests for this project\n        for (uint256 i = 0; i < _lastWithdrawal; i++) {\n            // if request number is equal to index\n            if(i + 1 == _withdrawalRequestIndex) {\n                // increment approval count\n                idToWithdrawalRequests[_id][i].approvedVotes += 1;\n            }\n        }\n        // push msg.sender to approvals list for this request\n        approvals[_id][_withdrawalRequestIndex - 1].push(msg.sender);\n        \n        emit ApproveRequest(_id, _withdrawalRequestIndex);\n    }\n/** @dev Function to reject withdrawal of funds\n     * @param _id Project ID\n     * @param _withdrawalRequestIndex Index of withdrawal request\n     */\n    function rejectWithdrawalRequest(\n        uint256 _id,\n        uint32 _withdrawalRequestIndex\n    )\n        public\n        onlyProjectDonor(_id)\n        checkState(_id, State.Success)\n        checkLatestWithdrawalIndex(_id, _withdrawalRequestIndex)\n    {\n        // confirm user hasn't approved request\n        require(!_checkAddressInApprovalsIterator(_id, _withdrawalRequestIndex, msg.sender), \n                \"Invalid operation. You have approved this request\");\n        require(!_checkAddressInRejectionIterator(_id, _withdrawalRequestIndex, msg.sender), \n                \"Invalid operation. You have already rejected this request\");\n        // get total withdrawal requests made\n        uint256 _lastWithdrawal = latestWithdrawalIndex[_id];\n        // iterate over all requests for this project\n        for (uint256 i = 0; i < _lastWithdrawal; i++) {\n            // if request number is equal to index\n            if(i + 1 == _withdrawalRequestIndex) {\n                // if there hve been approvals, decrement\n                if(idToWithdrawalRequests[_id][i].approvedVotes != 0) {\n                    // decrement approval count\n                    idToWithdrawalRequests[_id][i].approvedVotes -= 1;\n                } \n                    // else if no one has approved request yet, keep approvals to 0\n                else {\n                    idToWithdrawalRequests[_id][i].approvedVotes == 0;\n                }\n            }\n        }\n        // add msg.sender to rejections list for this request\n        rejections[_id][_withdrawalRequestIndex - 1].push(msg.sender);\nemit RejectRequest(_id, _withdrawalRequestIndex);\n    }\n/** @dev Function to transfer funds to project creator\n     * @param _id Project ID\n     * @param _withdrawalRequestIndex Index of withdrawal request\n     */\n    function transferWithdrawalRequestFunds(\n        uint256 _id,\n        uint32 _withdrawalRequestIndex\n    )\n        public\n        payable\n        onlyProjectOwner(_id)\n        checkLatestWithdrawalIndex(_id, _withdrawalRequestIndex)\n        nonReentrant()\n    {\n        require(\n     // _withdrawalRequestIndex - 1 to accomodate 0 start of arrays\n            // idToWithdrawalRequests[_id][_withdrawalRequestIndex - 1].approvedVotes > (idToProject[_id].totalDepositors).div(2),\n            idToWithdrawalRequests[_id][_withdrawalRequestIndex - 1].approvedVotes > (idToProject[_id].totalDepositors) / 2,\n            \"More than half the total depositors need to approve withdrawal request\"\n        );\n        require(idToWithdrawalRequests[_id][_withdrawalRequestIndex - 1].withdrawn == false, \"Withdrawal has laready been made for this request\");\n         require(idToWithdrawalRequests[_id][_withdrawalRequestIndex - 1].withdrawalAmount < idToProject[_id].totalPledged, \"Insufficient funds\");\n          WithdrawalRequest storage cRequest = idToWithdrawalRequests[_id][_withdrawalRequestIndex - 1];\n        // flat 0.3% platform fee\n        // uint256 platformFee = (cRequest.withdrawalAmount.mul(3)).div(1000);\n        uint256 platformFee = (cRequest.withdrawalAmount * (3)) / 1000;\n        (bool pfSuccess, ) = payable(platformAdmin).call{value: platformFee}(\"\");\n        require(pfSuccess, \"Transaction failed. Please try again later.\");\n        emit PayPlatform(_id, _withdrawalRequestIndex, platformFee);\n        \n        // transfer funds to creator\n        address payable _creator = idToProject[_id].creator;\n        uint256 _amount = cRequest.withdrawalAmount - platformFee;\n        (bool success, ) = _creator.call{value: _amount}(\"\");\n        require(success, \"Transaction failed. Please try again later.\");\n        emit PayCreator(_id, _withdrawalRequestIndex, _amount);\n        // update states\n        cRequest.withdrawn = true;\n        idToProject[_id].totalWithdrawn += cRequest.withdrawalAmount;\n        emit TransferRequestFunds(_id, _withdrawalRequestIndex);\n    }\n\n    /*===== Blockchain get functions =====*/\n/** @dev Function to get project details\n     * @param _id Project ID\n     */\n    function getProjectDetails(uint256 _id)\n        public\n        view\n        returns (\n            address creator,\n            string memory name,\n            string memory description,\n            uint256 projectDeadline,\n            uint256 totalPledged,\n            uint256 goal,\n            uint256 totalDepositors,\n            uint256 totalWithdrawn,\n            State currentState\n)\n    {\n        creator = idToProject[_id].creator;\n        name = idToProject[_id].name;\n        description = idToProject[_id].description;\n        projectDeadline = idToProject[_id].projectDeadline;\n        totalPledged = idToProject[_id].totalPledged;\n        goal = idToProject[_id].goal;\n        totalDepositors = idToProject[_id].totalDepositors;\n        totalWithdrawn = idToProject[_id].totalWithdrawn;\n        currentState = idToProject[_id].currentState;\n    }\nfunction getAllProjects() public view returns (Project[] memory) {\n        uint256 _projectCount = projectCount;\n        Project[] memory projects = new Project[](_projectCount);\n        for (uint256 i = 0; i < _projectCount; i++) {\n            uint256 currentId = i + 1;\n            Project storage currentItem = idToProject[currentId];\n            projects[i] = currentItem;\n        }\n        return projects;\n    }\nfunction getProjectCount() public view returns (uint256 count) {\n        count = projectCount;\n    }\nfunction getAllWithdrawalRequests(uint256 _id)\n        public\n        view\n        returns (WithdrawalRequest[] memory)\n    {\n        uint256 _lastWithdrawal = latestWithdrawalIndex[_id];\n        WithdrawalRequest[] memory withdrawals = new WithdrawalRequest[](\n            _lastWithdrawal\n        );\n        for (uint256 i = 0; i < _lastWithdrawal; i++) {\n            WithdrawalRequest storage currentRequest = idToWithdrawalRequests[_id][i];\n            withdrawals[i] = currentRequest;\n        }\n        return withdrawals;\n    }\nfunction getContributions(uint256 _id, address _contributor) public view returns(uint256) {\n        return contributions[_id][_contributor];\n    }\n}",
  "sourcePath": "/Users/webskitters/Desktop/crowdFunding/contracts/crowdFunding.sol",
  "compiler": {
    "name": "solc",
    "version": "0.8.21+commit.d9974bed.Emscripten.clang"
  },
  "schemaVersion": "3.4.16",
  "updatedAt": "2024-01-17T14:13:19.307Z",
  "devdoc": {
    "errors": {
      "ReentrancyGuardReentrantCall()": [
        {
          "details": "Unauthorized reentrant call."
        }
      ]
    },
    "kind": "dev",
    "methods": {
      "approveWithdrawalRequest(uint256,uint32)": {
        "details": "Function to approve withdrawal of funds",
        "params": {
          "_id": "Project ID",
          "_withdrawalRequestIndex": "Index of withdrawal request"
        }
      },
      "contributeFunds(uint256)": {
        "details": "Function to make a contribution to the project",
        "params": {
          "_id": "Project ID where contributions are to be made"
        }
      },
      "createNewProject(string,string,uint256,uint256)": {
        "details": "Function to start a new project.",
        "params": {
          "_description": "Project Description",
          "_goalEth": "Project goal in ETH",
          "_name": "Name of the project",
          "_projectDeadline": "Total days to end of fundraise"
        }
      },
      "createWithdrawalRequest(uint256,uint32,string,uint256)": {
        "details": "Function to create a request for withdrawal of funds",
        "params": {
          "_amount": "Amount of withdrawal requested in ETH",
          "_description": "Purpose of withdrawal",
          "_id": "Project ID",
          "_requestNumber": "Index of the request"
        }
      },
      "endContributionsExpire(uint256)": {
        "details": "Function to end fundraising drive",
        "params": {
          "_id": "Project ID"
        }
      },
      "endContributionsSuccess(uint256)": {
        "details": "Function to end fundraising drive with success is total pledged higher than goal. Irrespective of deadline",
        "params": {
          "_id": "Project ID"
        }
      },
      "getProjectDetails(uint256)": {
        "details": "Function to get project details",
        "params": {
          "_id": "Project ID"
        }
      },
      "getRefund(uint256)": {
        "details": "Function to get refund on expired projects",
        "params": {
          "_id": "Project ID"
        }
      },
      "rejectWithdrawalRequest(uint256,uint32)": {
        "details": "Function to reject withdrawal of funds",
        "params": {
          "_id": "Project ID",
          "_withdrawalRequestIndex": "Index of withdrawal request"
        }
      },
      "transferWithdrawalRequestFunds(uint256,uint32)": {
        "details": "Function to transfer funds to project creator",
        "params": {
          "_id": "Project ID",
          "_withdrawalRequestIndex": "Index of withdrawal request"
        }
      }
    },
    "version": 1
  },
  "userdoc": {
    "kind": "user",
    "methods": {},
    "version": 1
  }
}